:020000040000FA
:020000000628D0
:04000C00831605143E
:100010008514051185110611861106128612073006
:1000200081008312A2010A30A30006118611061274
:1000300086120C302206031921281E280515851169
:100040002428051185153B28051827282A28231858
:100050003B282D28A31C33283B28061568200611B1
:100060002314A3103B2857208615682086112310DF
:10007000A314A20A3B2885183E28412823191928D1
:100080004428A31D4A28192806166820061223159D
:10009000A311192857208616682086122311A3154C
:1000A00000302206031D55281928A2031928013003
:1000B000A9006430A8006230A7004330A600A60B58
:1000C0005F28A70B5D28A80B5B28A90B59280800FF
:1000D0000330A4006E20A40B6A2808003C30810085
:0800E0000B1D70280B11080034
:02400E00F13F80
:00000001FF
